{
  "contractName": "MulitSig",
  "abi": [
    {
      "inputs": [
        {
          "internalType": "uint256",
          "name": "_number",
          "type": "uint256"
        },
        {
          "internalType": "address[]",
          "name": "_owners",
          "type": "address[]"
        }
      ],
      "stateMutability": "nonpayable",
      "type": "constructor"
    },
    {
      "inputs": [
        {
          "internalType": "address",
          "name": "_to",
          "type": "address"
        },
        {
          "internalType": "uint256",
          "name": "_amount",
          "type": "uint256"
        }
      ],
      "name": "startTransaction",
      "outputs": [],
      "stateMutability": "nonpayable",
      "type": "function"
    },
    {
      "inputs": [
        {
          "internalType": "uint256",
          "name": "_txId",
          "type": "uint256"
        }
      ],
      "name": "approve",
      "outputs": [],
      "stateMutability": "nonpayable",
      "type": "function"
    },
    {
      "inputs": [
        {
          "internalType": "uint256",
          "name": "_txId",
          "type": "uint256"
        }
      ],
      "name": "viewTransaction",
      "outputs": [
        {
          "components": [
            {
              "internalType": "address",
              "name": "to",
              "type": "address"
            },
            {
              "internalType": "uint256",
              "name": "amount",
              "type": "uint256"
            },
            {
              "internalType": "uint256",
              "name": "txId",
              "type": "uint256"
            },
            {
              "internalType": "enum MulitSig.status",
              "name": "txStatus",
              "type": "uint8"
            }
          ],
          "internalType": "struct MulitSig.Transaction",
          "name": "",
          "type": "tuple"
        }
      ],
      "stateMutability": "view",
      "type": "function",
      "constant": true
    },
    {
      "inputs": [],
      "name": "deposit",
      "outputs": [],
      "stateMutability": "payable",
      "type": "function",
      "payable": true
    }
  ],
  "bytecode": "0x60806040523480156200001157600080fd5b5060405162001407380380620014078339818101604052810190620000379190620003ee565b6001815162000047919062000483565b8211156200008c576040517f08c379a0000000000000000000000000000000000000000000000000000000008152600401620000839062000567565b60405180910390fd5b816001819055508060009080519060200190620000ab92919062000117565b506000339080600181540180825580915050600190039060005260206000200160009091909190916101000a81548173ffffffffffffffffffffffffffffffffffffffff021916908373ffffffffffffffffffffffffffffffffffffffff160217905550505062000589565b82805482825590600052602060002090810192821562000193579160200282015b82811115620001925782518260006101000a81548173ffffffffffffffffffffffffffffffffffffffff021916908373ffffffffffffffffffffffffffffffffffffffff1602179055509160200191906001019062000138565b5b509050620001a29190620001a6565b5090565b5b80821115620001c1576000816000905550600101620001a7565b5090565b6000604051905090565b600080fd5b600080fd5b6000819050919050565b620001ee81620001d9565b8114620001fa57600080fd5b50565b6000815190506200020e81620001e3565b92915050565b600080fd5b6000601f19601f8301169050919050565b7f4e487b7100000000000000000000000000000000000000000000000000000000600052604160045260246000fd5b620002648262000219565b810181811067ffffffffffffffff821117156200028657620002856200022a565b5b80604052505050565b60006200029b620001c5565b9050620002a9828262000259565b919050565b600067ffffffffffffffff821115620002cc57620002cb6200022a565b5b602082029050602081019050919050565b600080fd5b600073ffffffffffffffffffffffffffffffffffffffff82169050919050565b60006200030f82620002e2565b9050919050565b620003218162000302565b81146200032d57600080fd5b50565b600081519050620003418162000316565b92915050565b60006200035e6200035884620002ae565b6200028f565b90508083825260208201905060208402830185811115620003845762000383620002dd565b5b835b81811015620003b157806200039c888262000330565b84526020840193505060208101905062000386565b5050509392505050565b600082601f830112620003d357620003d262000214565b5b8151620003e584826020860162000347565b91505092915050565b60008060408385031215620004085762000407620001cf565b5b60006200041885828601620001fd565b925050602083015167ffffffffffffffff8111156200043c576200043b620001d4565b5b6200044a85828601620003bb565b9150509250929050565b7f4e487b7100000000000000000000000000000000000000000000000000000000600052601160045260246000fd5b60006200049082620001d9565b91506200049d83620001d9565b9250827fffffffffffffffffffffffffffffffffffffffffffffffffffffffffffffffff03821115620004d557620004d462000454565b5b828201905092915050565b600082825260208201905092915050565b7f43616e742068617665206d6f726520617070726f76616c73207468616e206f7760008201527f6e65727300000000000000000000000000000000000000000000000000000000602082015250565b60006200054f602483620004e0565b91506200055c82620004f1565b604082019050919050565b60006020820190508181036000830152620005828162000540565b9050919050565b610e6e80620005996000396000f3fe60806040526004361061003f5760003560e01c806311a34f38146100445780638916d12c1461006d578063b759f954146100aa578063d0e30db0146100d3575b600080fd5b34801561005057600080fd5b5061006b600480360381019061006691906108e4565b6100dd565b005b34801561007957600080fd5b50610094600480360381019061008f9190610924565b61027a565b6040516100a19190610a3b565b60405180910390f35b3480156100b657600080fd5b506100d160048036038101906100cc9190610924565b61036c565b005b6100db6106ff565b005b600115156100ea33610701565b15151461012c576040517f08c379a000000000000000000000000000000000000000000000000000000000815260040161012390610ab3565b60405180910390fd5b8047101561016f576040517f08c379a000000000000000000000000000000000000000000000000000000000815260040161016690610b45565b60405180910390fd5b600260405180608001604052808473ffffffffffffffffffffffffffffffffffffffff1681526020018381526020016002805490508152602001600060018111156101bd576101bc61096f565b5b815250908060018154018082558091505060019003906000526020600020906004020160009091909190915060008201518160000160006101000a81548173ffffffffffffffffffffffffffffffffffffffff021916908373ffffffffffffffffffffffffffffffffffffffff160217905550602082015181600101556040820151816002015560608201518160030160006101000a81548160ff0219169083600181111561026f5761026e61096f565b5b021790555050505050565b6102826107fb565b816002805490501161029357600080fd5b600282815481106102a7576102a6610b65565b5b90600052602060002090600402016040518060800160405290816000820160009054906101000a900473ffffffffffffffffffffffffffffffffffffffff1673ffffffffffffffffffffffffffffffffffffffff1673ffffffffffffffffffffffffffffffffffffffff16815260200160018201548152602001600282015481526020016003820160009054906101000a900460ff16600181111561034f5761034e61096f565b5b60018111156103615761036061096f565b5b815250509050919050565b6001151561037933610701565b1515146103bb576040517f08c379a00000000000000000000000000000000000000000000000000000000081526004016103b290610ab3565b60405180910390fd5b60006002805490501415610404576040517f08c379a00000000000000000000000000000000000000000000000000000000081526004016103fb90610be0565b60405180910390fd5b600280549050811061044b576040517f08c379a000000000000000000000000000000000000000000000000000000000815260040161044290610c4c565b60405180910390fd5b6000600181111561045f5761045e61096f565b5b6002828154811061047357610472610b65565b5b906000526020600020906004020160030160009054906101000a900460ff1660018111156104a4576104a361096f565b5b146104e4576040517f08c379a00000000000000000000000000000000000000000000000000000000081526004016104db90610cde565b60405180910390fd5b60001515600360003373ffffffffffffffffffffffffffffffffffffffff1673ffffffffffffffffffffffffffffffffffffffff168152602001908152602001600020600083815260200190815260200160002060009054906101000a900460ff16151514610588576040517f08c379a000000000000000000000000000000000000000000000000000000000815260040161057f90610d4a565b60405180910390fd5b6001600360003373ffffffffffffffffffffffffffffffffffffffff1673ffffffffffffffffffffffffffffffffffffffff168152602001908152602001600020600083815260200190815260200160002060006101000a81548160ff02191690831515021790555060016004600083815260200190815260200160002060008282546106159190610d99565b92505081905550600154600460008381526020019081526020016000205414156106fc576106ad600282815481106106505761064f610b65565b5b906000526020600020906004020160000160009054906101000a900473ffffffffffffffffffffffffffffffffffffffff166002838154811061069657610695610b65565b5b9060005260206000209060040201600101546107b0565b6001600282815481106106c3576106c2610b65565b5b906000526020600020906004020160030160006101000a81548160ff021916908360018111156106f6576106f561096f565b5b02179055505b50565b565b600080600090505b6000805490508110156107a5576000818154811061072a57610729610b65565b5b9060005260206000200160009054906101000a900473ffffffffffffffffffffffffffffffffffffffff1673ffffffffffffffffffffffffffffffffffffffff168373ffffffffffffffffffffffffffffffffffffffff1614156107925760019150506107ab565b808061079d90610def565b915050610709565b50600090505b919050565b8173ffffffffffffffffffffffffffffffffffffffff166108fc829081150290604051600060405180830381858888f193505050501580156107f6573d6000803e3d6000fd5b505050565b6040518060800160405280600073ffffffffffffffffffffffffffffffffffffffff1681526020016000815260200160008152602001600060018111156108455761084461096f565b5b81525090565b600080fd5b600073ffffffffffffffffffffffffffffffffffffffff82169050919050565b600061087b82610850565b9050919050565b61088b81610870565b811461089657600080fd5b50565b6000813590506108a881610882565b92915050565b6000819050919050565b6108c1816108ae565b81146108cc57600080fd5b50565b6000813590506108de816108b8565b92915050565b600080604083850312156108fb576108fa61084b565b5b600061090985828601610899565b925050602061091a858286016108cf565b9150509250929050565b60006020828403121561093a5761093961084b565b5b6000610948848285016108cf565b91505092915050565b61095a81610870565b82525050565b610969816108ae565b82525050565b7f4e487b7100000000000000000000000000000000000000000000000000000000600052602160045260246000fd5b600281106109af576109ae61096f565b5b50565b60008190506109c08261099e565b919050565b60006109d0826109b2565b9050919050565b6109e0816109c5565b82525050565b6080820160008201516109fc6000850182610951565b506020820151610a0f6020850182610960565b506040820151610a226040850182610960565b506060820151610a3560608501826109d7565b50505050565b6000608082019050610a5060008301846109e6565b92915050565b600082825260208201905092915050565b7f596f7520617265206e6f7420616e206f776e6572000000000000000000000000600082015250565b6000610a9d601483610a56565b9150610aa882610a67565b602082019050919050565b60006020820190508181036000830152610acc81610a90565b9050919050565b7f4e6f7420656e6f7567682062616c616e636520666f722074686973207472616e60008201527f73616374696f6e00000000000000000000000000000000000000000000000000602082015250565b6000610b2f602783610a56565b9150610b3a82610ad3565b604082019050919050565b60006020820190508181036000830152610b5e81610b22565b9050919050565b7f4e487b7100000000000000000000000000000000000000000000000000000000600052603260045260246000fd5b7f546865726520617265206e6f207472616e73616374696f6e7320796574000000600082015250565b6000610bca601d83610a56565b9150610bd582610b94565b602082019050919050565b60006020820190508181036000830152610bf981610bbd565b9050919050565b7f54686973207472616e73616374696f6e20646f6573206e6f7420657869737400600082015250565b6000610c36601f83610a56565b9150610c4182610c00565b602082019050919050565b60006020820190508181036000830152610c6581610c29565b9050919050565b7f546865207472616e73616374696f6e206861732070726f6363656420616c726560008201527f6164790000000000000000000000000000000000000000000000000000000000602082015250565b6000610cc8602383610a56565b9150610cd382610c6c565b604082019050919050565b60006020820190508181036000830152610cf781610cbb565b9050919050565b7f596f75206861766520617070726f766564207468697320616c72656164790000600082015250565b6000610d34601e83610a56565b9150610d3f82610cfe565b602082019050919050565b60006020820190508181036000830152610d6381610d27565b9050919050565b7f4e487b7100000000000000000000000000000000000000000000000000000000600052601160045260246000fd5b6000610da4826108ae565b9150610daf836108ae565b9250827fffffffffffffffffffffffffffffffffffffffffffffffffffffffffffffffff03821115610de457610de3610d6a565b5b828201905092915050565b6000610dfa826108ae565b91507fffffffffffffffffffffffffffffffffffffffffffffffffffffffffffffffff821415610e2d57610e2c610d6a565b5b60018201905091905056fea26469706673582212208a7ab30cf1c7d2a66d0691d7498f0bffd546708efc39c7512865857c02f71f8d64736f6c634300080b0033",
  "immutableReferences": {},
  "source": "pragma solidity 0.8.11;\npragma abicoder v2;\ncontract MulitSig{\n\n    address [] owners;\n    uint256 approvalsNeeded;\n    //Set Transaction to done when finished\n    enum status{NOTDONE,DONE}\n\n    struct Transaction{\n        address to;\n        uint256 amount;\n        uint256 txId;\n        status txStatus;\n    }\n    //Holds array of all transactions, array length will result in Transaction Id\n    Transaction [] pendingTrans;\n    mapping(address => mapping(uint256 => bool)) hasApproved;\n    // TransactionId to Aprovalcount to keep track\n    mapping(uint256 => uint256) aprovalConfirmed;\n    //Read in number of approvals and list of owners\n    constructor(uint256 _number, address [] memory _owners){\n        require(_number <= _owners.length + 1,\"Cant have more approvals than owners\");\n         approvalsNeeded = _number;\n        owners = _owners;\n        owners.push(msg.sender);\n    }\n    modifier onlyOwner{\n        require(isOwner(msg.sender)==true,\"You are not an owner\");\n        _;\n    }\n\n    //push transaction to array only owners can do this\n    function startTransaction(address _to, uint256 _amount) public onlyOwner{\n        require(address(this).balance >= _amount,\"Not enough balance for this transaction\");\n            pendingTrans.push(Transaction(_to,_amount,pendingTrans.length,status.NOTDONE));\n    }\n    //approve a transaction\n    function approve(uint256 _txId)public onlyOwner{\n        require(pendingTrans.length != 0, \"There are no transactions yet\");\n        require(_txId < pendingTrans.length, \"This transaction does not exist\");\n        require(pendingTrans[_txId].txStatus == status.NOTDONE ,\"The transaction has procced already\");\n        require(hasApproved[msg.sender][_txId] == false,\"You have approved this already\");\n        //set user to approved and increase a approval\n        hasApproved[msg.sender][_txId] = true;\n        aprovalConfirmed[_txId]+=1;\n        //if transactionid approval number is equal to amount of approvals set trasnsaction to done and transfer funds\n         if(aprovalConfirmed[_txId] == approvalsNeeded){\n        _transfer(pendingTrans[_txId].to,pendingTrans[_txId].amount);\n        pendingTrans[_txId].txStatus = status.DONE;\n        }\n    }\n    function viewTransaction(uint256 _txId)public view returns(Transaction memory){\n        require(pendingTrans.length > _txId);\n        return pendingTrans[_txId];\n    }\n\n    function _transfer(address _to, uint256 _amount)internal{\n        payable(_to).transfer(_amount);\n    }\n\n\n    //Empty payable function\n    function deposit() payable public {}\n\n    //function to ensure an address is an owner\n    function isOwner(address _addy) internal view returns(bool){\n        for(uint i = 0; i < owners.length;i++){\n            if(_addy == owners[i]){\n                return true;\n            }\n        }\n        return false;\n            \n            }\n\n}",
  "sourcePath": "/Users/nikokantarellis/coding/Wallet/contracts/MultiSig.sol",
  "compiler": {
    "name": "solc",
    "version": "0.8.11+commit.d7f03943.Emscripten.clang"
  },
  "schemaVersion": "3.4.3",
  "updatedAt": "2022-02-01T15:43:26.170Z",
  "networkType": "ethereum",
  "devdoc": {
    "kind": "dev",
    "methods": {},
    "version": 1
  },
  "userdoc": {
    "kind": "user",
    "methods": {},
    "version": 1
  }
}